:020000020000FC
:0200000033C00B
:02001C0050C0D2
:1000680008E00EBF0FEF0DBF219AF0E0E6EDD1E0FA
:10007800C2E215E00CED7801F0928900E092880068
:100088001EE41093870000E20093860002E80093C4
:1000980080000CE90093B30002E00093700002E8CE
:1000A8000093B00009E10093810005E00093B100DE
:1000B80078940000FECF0591E00EF0928900E0925E
:1000C8008800EC17FD0711F4F0E0E6ED18952728F5
:1000D8002726252322211E1B1A1713110E0B07058D
:1000E80000FEFAF7F4F0EEEBE7E6E3E1DFDDDBDB59
:1000F800D9D9D8D9D8D9D9DBDBDDDFE1E3E6E7EB1D
:10010800EEF0F4F7FAFE0005070B0E1113171A1B91
:0A0118001E21222325262728280097
:00000001FF
